{
  "contractName": "Crowdfunding",
  "abi": [
    {
      "inputs": [],
      "stateMutability": "nonpayable",
      "type": "constructor"
    },
    {
      "anonymous": false,
      "inputs": [
        {
          "indexed": false,
          "internalType": "uint256",
          "name": "id",
          "type": "uint256"
        },
        {
          "indexed": false,
          "internalType": "string",
          "name": "name",
          "type": "string"
        },
        {
          "indexed": false,
          "internalType": "string",
          "name": "desc",
          "type": "string"
        },
        {
          "indexed": false,
          "internalType": "address",
          "name": "owner",
          "type": "address"
        },
        {
          "indexed": false,
          "internalType": "uint256",
          "name": "endDate",
          "type": "uint256"
        },
        {
          "indexed": false,
          "internalType": "bool",
          "name": "exists",
          "type": "bool"
        },
        {
          "indexed": false,
          "internalType": "uint256",
          "name": "balance",
          "type": "uint256"
        },
        {
          "indexed": false,
          "internalType": "uint256",
          "name": "target",
          "type": "uint256"
        }
      ],
      "name": "ProjectCreated",
      "type": "event"
    },
    {
      "anonymous": false,
      "inputs": [
        {
          "indexed": false,
          "internalType": "uint256",
          "name": "id",
          "type": "uint256"
        },
        {
          "indexed": false,
          "internalType": "string",
          "name": "name",
          "type": "string"
        },
        {
          "indexed": false,
          "internalType": "uint256",
          "name": "balance",
          "type": "uint256"
        }
      ],
      "name": "ProjectEnded",
      "type": "event"
    },
    {
      "anonymous": false,
      "inputs": [
        {
          "indexed": false,
          "internalType": "uint256",
          "name": "id",
          "type": "uint256"
        },
        {
          "indexed": false,
          "internalType": "string",
          "name": "name",
          "type": "string"
        },
        {
          "indexed": false,
          "internalType": "string",
          "name": "desc",
          "type": "string"
        },
        {
          "indexed": false,
          "internalType": "address",
          "name": "owner",
          "type": "address"
        },
        {
          "indexed": false,
          "internalType": "uint256",
          "name": "endDate",
          "type": "uint256"
        },
        {
          "indexed": false,
          "internalType": "bool",
          "name": "exists",
          "type": "bool"
        },
        {
          "indexed": false,
          "internalType": "uint256",
          "name": "balance",
          "type": "uint256"
        },
        {
          "indexed": false,
          "internalType": "uint256",
          "name": "target",
          "type": "uint256"
        }
      ],
      "name": "ProjectFunded",
      "type": "event"
    },
    {
      "inputs": [],
      "name": "name",
      "outputs": [
        {
          "internalType": "string",
          "name": "",
          "type": "string"
        }
      ],
      "stateMutability": "view",
      "type": "function",
      "constant": true
    },
    {
      "inputs": [],
      "name": "projectCount",
      "outputs": [
        {
          "internalType": "uint256",
          "name": "",
          "type": "uint256"
        }
      ],
      "stateMutability": "view",
      "type": "function",
      "constant": true
    },
    {
      "inputs": [
        {
          "internalType": "uint256",
          "name": "",
          "type": "uint256"
        }
      ],
      "name": "projects",
      "outputs": [
        {
          "internalType": "uint256",
          "name": "id",
          "type": "uint256"
        },
        {
          "internalType": "string",
          "name": "name",
          "type": "string"
        },
        {
          "internalType": "string",
          "name": "desc",
          "type": "string"
        },
        {
          "internalType": "address",
          "name": "owner",
          "type": "address"
        },
        {
          "internalType": "uint256",
          "name": "endDate",
          "type": "uint256"
        },
        {
          "internalType": "bool",
          "name": "exists",
          "type": "bool"
        },
        {
          "internalType": "uint256",
          "name": "balance",
          "type": "uint256"
        },
        {
          "internalType": "uint256",
          "name": "target",
          "type": "uint256"
        }
      ],
      "stateMutability": "view",
      "type": "function",
      "constant": true
    },
    {
      "inputs": [
        {
          "internalType": "string",
          "name": "_name",
          "type": "string"
        },
        {
          "internalType": "string",
          "name": "_desc",
          "type": "string"
        },
        {
          "internalType": "uint256",
          "name": "_endDate",
          "type": "uint256"
        },
        {
          "internalType": "uint256",
          "name": "_target",
          "type": "uint256"
        }
      ],
      "name": "createProject",
      "outputs": [],
      "stateMutability": "nonpayable",
      "type": "function"
    },
    {
      "inputs": [
        {
          "internalType": "uint256",
          "name": "_id",
          "type": "uint256"
        }
      ],
      "name": "getProjectById",
      "outputs": [
        {
          "internalType": "string",
          "name": "_name",
          "type": "string"
        },
        {
          "internalType": "string",
          "name": "_desc",
          "type": "string"
        },
        {
          "internalType": "uint256",
          "name": "_target",
          "type": "uint256"
        },
        {
          "internalType": "uint256",
          "name": "_endDate",
          "type": "uint256"
        },
        {
          "internalType": "address",
          "name": "_owner",
          "type": "address"
        },
        {
          "internalType": "uint256",
          "name": "_balance",
          "type": "uint256"
        }
      ],
      "stateMutability": "view",
      "type": "function",
      "constant": true
    },
    {
      "inputs": [
        {
          "internalType": "uint256",
          "name": "_id",
          "type": "uint256"
        }
      ],
      "name": "fundProject",
      "outputs": [],
      "stateMutability": "payable",
      "type": "function",
      "payable": true
    },
    {
      "inputs": [
        {
          "internalType": "uint256",
          "name": "_id",
          "type": "uint256"
        }
      ],
      "name": "closeProject",
      "outputs": [],
      "stateMutability": "nonpayable",
      "type": "function"
    },
    {
      "inputs": [],
      "name": "balanceOfProjects",
      "outputs": [
        {
          "internalType": "uint256",
          "name": "",
          "type": "uint256"
        }
      ],
      "stateMutability": "view",
      "type": "function",
      "constant": true
    },
    {
      "inputs": [
        {
          "internalType": "uint256",
          "name": "_id",
          "type": "uint256"
        }
      ],
      "name": "dispatchFunds",
      "outputs": [],
      "stateMutability": "payable",
      "type": "function",
      "payable": true
    }
  ],
  "bytecode": "0x608060405260006001553480156200001657600080fd5b506040518060400160405280601d81526020017f4d61726b6574706c61636520666f722063726f77642066756e64696e6700000081525060009080519060200190620000649291906200006b565b506200017f565b82805462000079906200014a565b90600052602060002090601f0160209004810192826200009d5760008555620000e9565b82601f10620000b857805160ff1916838001178555620000e9565b82800160010185558215620000e9579182015b82811115620000e8578251825591602001919060010190620000cb565b5b509050620000f89190620000fc565b5090565b5b8082111562000117576000816000905550600101620000fd565b5090565b7f4e487b7100000000000000000000000000000000000000000000000000000000600052602260045260246000fd5b600060028204905060018216806200016357607f821691505b6020821081036200017957620001786200011b565b5b50919050565b61207f806200018f6000396000f3fe6080604052600436106100865760003560e01c806393dc12e61161005957806393dc12e61461014157806394ba97091461016a578063b0036ac714610193578063bee5cdca146101af578063d9812581146101f157610086565b806306fdde031461008b578063107046bd146100b657806336fbad26146100fa5780636c563abe14610125575b600080fd5b34801561009757600080fd5b506100a061021c565b6040516100ad919061174b565b60405180910390f35b3480156100c257600080fd5b506100dd60048036038101906100d891906117b7565b6102aa565b6040516100f198979695949392919061184f565b60405180910390f35b34801561010657600080fd5b5061010f61042f565b60405161011c91906118db565b60405180910390f35b61013f600480360381019061013a91906117b7565b610435565b005b34801561014d57600080fd5b50610168600480360381019061016391906117b7565b610907565b005b34801561017657600080fd5b50610191600480360381019061018c9190611a2b565b610f50565b005b6101ad60048036038101906101a891906117b7565b611116565b005b3480156101bb57600080fd5b506101d660048036038101906101d191906117b7565b611429565b6040516101e896959493929190611aca565b60405180910390f35b3480156101fd57600080fd5b50610206611607565b60405161021391906118db565b60405180910390f35b6000805461022990611b68565b80601f016020809104026020016040519081016040528092919081815260200182805461025590611b68565b80156102a25780601f10610277576101008083540402835291602001916102a2565b820191906000526020600020905b81548152906001019060200180831161028557829003601f168201915b505050505081565b60026020528060005260406000206000915090508060000154908060010180546102d390611b68565b80601f01602080910402602001604051908101604052809291908181526020018280546102ff90611b68565b801561034c5780601f106103215761010080835404028352916020019161034c565b820191906000526020600020905b81548152906001019060200180831161032f57829003601f168201915b50505050509080600201805461036190611b68565b80601f016020809104026020016040519081016040528092919081815260200182805461038d90611b68565b80156103da5780601f106103af576101008083540402835291602001916103da565b820191906000526020600020905b8154815290600101906020018083116103bd57829003601f168201915b5050505050908060030160009054906101000a900473ffffffffffffffffffffffffffffffffffffffff16908060040154908060050160009054906101000a900460ff16908060060154908060070154905088565b60015481565b600060026000838152602001908152602001600020604051806101000160405290816000820154815260200160018201805461047090611b68565b80601f016020809104026020016040519081016040528092919081815260200182805461049c90611b68565b80156104e95780601f106104be576101008083540402835291602001916104e9565b820191906000526020600020905b8154815290600101906020018083116104cc57829003601f168201915b5050505050815260200160028201805461050290611b68565b80601f016020809104026020016040519081016040528092919081815260200182805461052e90611b68565b801561057b5780601f106105505761010080835404028352916020019161057b565b820191906000526020600020905b81548152906001019060200180831161055e57829003601f168201915b505050505081526020016003820160009054906101000a900473ffffffffffffffffffffffffffffffffffffffff1673ffffffffffffffffffffffffffffffffffffffff1673ffffffffffffffffffffffffffffffffffffffff168152602001600482015481526020016005820160009054906101000a900460ff16151515158152602001600682015481526020016007820154815250509050600081606001519050600082600001511180156106385750600154826000015111155b61064157600080fd5b81608001514210610687576040517f08c379a000000000000000000000000000000000000000000000000000000000815260040161067e90611be5565b60405180910390fd5b3373ffffffffffffffffffffffffffffffffffffffff168173ffffffffffffffffffffffffffffffffffffffff16036106f5576040517f08c379a00000000000000000000000000000000000000000000000000000000081526004016106ec90611c77565b60405180910390fd5b8160a00151610739576040517f08c379a000000000000000000000000000000000000000000000000000000000815260040161073090611ce3565b60405180910390fd5b6000341161074657600080fd5b348260c0018181516107589190611d32565b91508181525050816002600085815260200190815260200160002060008201518160000155602082015181600101908051906020019061079992919061160f565b5060408201518160020190805190602001906107b692919061160f565b5060608201518160030160006101000a81548173ffffffffffffffffffffffffffffffffffffffff021916908373ffffffffffffffffffffffffffffffffffffffff1602179055506080820151816004015560a08201518160050160006101000a81548160ff02191690831515021790555060c0820151816006015560e08201518160070155905050346003600085815260200190815260200160002060003373ffffffffffffffffffffffffffffffffffffffff1673ffffffffffffffffffffffffffffffffffffffff168152602001908152602001600020600082825461089f9190611d32565b925050819055507f36d362f344b370ff4a36908fb306e5a24c3bcf51dca8a6136366e0b485cec7a16001548360200151846040015133866080015160018860c001518960e001516040516108fa98979695949392919061184f565b60405180910390a1505050565b600060026000838152602001908152602001600020604051806101000160405290816000820154815260200160018201805461094290611b68565b80601f016020809104026020016040519081016040528092919081815260200182805461096e90611b68565b80156109bb5780601f10610990576101008083540402835291602001916109bb565b820191906000526020600020905b81548152906001019060200180831161099e57829003601f168201915b505050505081526020016002820180546109d490611b68565b80601f0160208091040260200160405190810160405280929190818152602001828054610a0090611b68565b8015610a4d5780601f10610a2257610100808354040283529160200191610a4d565b820191906000526020600020905b815481529060010190602001808311610a3057829003601f168201915b505050505081526020016003820160009054906101000a900473ffffffffffffffffffffffffffffffffffffffff1673ffffffffffffffffffffffffffffffffffffffff1673ffffffffffffffffffffffffffffffffffffffff168152602001600482015481526020016005820160009054906101000a900460ff161515151581526020016006820154815260200160078201548152505090506000816060015190503373ffffffffffffffffffffffffffffffffffffffff168173ffffffffffffffffffffffffffffffffffffffff1614610b5e576040517f08c379a0000000000000000000000000000000000000000000000000000000008152600401610b5590611dfa565b60405180910390fd5b600115158260a00151151514610ba9576040517f08c379a0000000000000000000000000000000000000000000000000000000008152600401610ba090611e66565b60405180910390fd5b8160800151421115610d5d5760008260a00190151590811515815250503073ffffffffffffffffffffffffffffffffffffffff1663b0036ac783600001516040518263ffffffff1660e01b8152600401610c0391906118db565b600060405180830381600087803b158015610c1d57600080fd5b505af1158015610c31573d6000803e3d6000fd5b505050508160026000858152602001908152602001600020600082015181600001556020820151816001019080519060200190610c6f92919061160f565b506040820151816002019080519060200190610c8c92919061160f565b5060608201518160030160006101000a81548173ffffffffffffffffffffffffffffffffffffffff021916908373ffffffffffffffffffffffffffffffffffffffff1602179055506080820151816004015560a08201518160050160006101000a81548160ff02191690831515021790555060c0820151816006015560e082015181600701559050507f0d77a7c0d00f191be30313fd4836ac7cefb3488b8c158ae53fc717a858675770826000015183602001518460c00151604051610d5493929190611e86565b60405180910390a15b8160800151421115610da4576040517f08c379a0000000000000000000000000000000000000000000000000000000008152600401610d9b90611f10565b60405180910390fd5b60008260a00190151590811515815250503073ffffffffffffffffffffffffffffffffffffffff1663b0036ac783600001516040518263ffffffff1660e01b8152600401610df291906118db565b600060405180830381600087803b158015610e0c57600080fd5b505af1158015610e20573d6000803e3d6000fd5b505050508160026000858152602001908152602001600020600082015181600001556020820151816001019080519060200190610e5e92919061160f565b506040820151816002019080519060200190610e7b92919061160f565b5060608201518160030160006101000a81548173ffffffffffffffffffffffffffffffffffffffff021916908373ffffffffffffffffffffffffffffffffffffffff1602179055506080820151816004015560a08201518160050160006101000a81548160ff02191690831515021790555060c0820151816006015560e082015181600701559050507f0d77a7c0d00f191be30313fd4836ac7cefb3488b8c158ae53fc717a858675770826000015183602001518460c00151604051610f4393929190611e86565b60405180910390a1505050565b6000845111610f5e57600080fd5b60008111610f6b57600080fd5b60008211610f7857600080fd5b60016000815480929190610f8b90611f30565b919050555060405180610100016040528060015481526020018581526020018481526020013373ffffffffffffffffffffffffffffffffffffffff168152602001838152602001600115158152602001600081526020018281525060026000600154815260200190815260200160002060008201518160000155602082015181600101908051906020019061102192919061160f565b50604082015181600201908051906020019061103e92919061160f565b5060608201518160030160006101000a81548173ffffffffffffffffffffffffffffffffffffffff021916908373ffffffffffffffffffffffffffffffffffffffff1602179055506080820151816004015560a08201518160050160006101000a81548160ff02191690831515021790555060c0820151816006015560e082015181600701559050507f318ae2105e4ed352c2e4ff310936d968690d612618b61006796a8a7709a1b008600154858533866001600088604051611108989796959493929190611fbd565b60405180910390a150505050565b600060026000838152602001908152602001600020604051806101000160405290816000820154815260200160018201805461115190611b68565b80601f016020809104026020016040519081016040528092919081815260200182805461117d90611b68565b80156111ca5780601f1061119f576101008083540402835291602001916111ca565b820191906000526020600020905b8154815290600101906020018083116111ad57829003601f168201915b505050505081526020016002820180546111e390611b68565b80601f016020809104026020016040519081016040528092919081815260200182805461120f90611b68565b801561125c5780601f106112315761010080835404028352916020019161125c565b820191906000526020600020905b81548152906001019060200180831161123f57829003601f168201915b505050505081526020016003820160009054906101000a900473ffffffffffffffffffffffffffffffffffffffff1673ffffffffffffffffffffffffffffffffffffffff1673ffffffffffffffffffffffffffffffffffffffff168152602001600482015481526020016005820160009054906101000a900460ff16151515158152602001600682015481526020016007820154815250509050806060015173ffffffffffffffffffffffffffffffffffffffff166108fc8260c001519081150290604051600060405180830381858888f19350505050158015611344573d6000803e3d6000fd5b50806002600084815260200190815260200160002060008201518160000155602082015181600101908051906020019061137f92919061160f565b50604082015181600201908051906020019061139c92919061160f565b5060608201518160030160006101000a81548173ffffffffffffffffffffffffffffffffffffffff021916908373ffffffffffffffffffffffffffffffffffffffff1602179055506080820151816004015560a08201518160050160006101000a81548160ff02191690831515021790555060c0820151816006015560e082015181600701559050505050565b6060806000806000806002600088815260200190815260200160002060010160026000898152602001908152602001600020600201600260008a815260200190815260200160002060070154600260008b815260200190815260200160002060040154600260008c815260200190815260200160002060030160009054906101000a900473ffffffffffffffffffffffffffffffffffffffff16600260008d8152602001908152602001600020600601548580546114e690611b68565b80601f016020809104026020016040519081016040528092919081815260200182805461151290611b68565b801561155f5780601f106115345761010080835404028352916020019161155f565b820191906000526020600020905b81548152906001019060200180831161154257829003601f168201915b5050505050955084805461157290611b68565b80601f016020809104026020016040519081016040528092919081815260200182805461159e90611b68565b80156115eb5780601f106115c0576101008083540402835291602001916115eb565b820191906000526020600020905b8154815290600101906020018083116115ce57829003601f168201915b5050505050945095509550955095509550955091939550919395565b600047905090565b82805461161b90611b68565b90600052602060002090601f01602090048101928261163d5760008555611684565b82601f1061165657805160ff1916838001178555611684565b82800160010185558215611684579182015b82811115611683578251825591602001919060010190611668565b5b5090506116919190611695565b5090565b5b808211156116ae576000816000905550600101611696565b5090565b600081519050919050565b600082825260208201905092915050565b60005b838110156116ec5780820151818401526020810190506116d1565b838111156116fb576000848401525b50505050565b6000601f19601f8301169050919050565b600061171d826116b2565b61172781856116bd565b93506117378185602086016116ce565b61174081611701565b840191505092915050565b600060208201905081810360008301526117658184611712565b905092915050565b6000604051905090565b600080fd5b600080fd5b6000819050919050565b61179481611781565b811461179f57600080fd5b50565b6000813590506117b18161178b565b92915050565b6000602082840312156117cd576117cc611777565b5b60006117db848285016117a2565b91505092915050565b6117ed81611781565b82525050565b600073ffffffffffffffffffffffffffffffffffffffff82169050919050565b600061181e826117f3565b9050919050565b61182e81611813565b82525050565b60008115159050919050565b61184981611834565b82525050565b600061010082019050611865600083018b6117e4565b8181036020830152611877818a611712565b9050818103604083015261188b8189611712565b905061189a6060830188611825565b6118a760808301876117e4565b6118b460a0830186611840565b6118c160c08301856117e4565b6118ce60e08301846117e4565b9998505050505050505050565b60006020820190506118f060008301846117e4565b92915050565b600080fd5b600080fd5b7f4e487b7100000000000000000000000000000000000000000000000000000000600052604160045260246000fd5b61193882611701565b810181811067ffffffffffffffff8211171561195757611956611900565b5b80604052505050565b600061196a61176d565b9050611976828261192f565b919050565b600067ffffffffffffffff82111561199657611995611900565b5b61199f82611701565b9050602081019050919050565b82818337600083830152505050565b60006119ce6119c98461197b565b611960565b9050828152602081018484840111156119ea576119e96118fb565b5b6119f58482856119ac565b509392505050565b600082601f830112611a1257611a116118f6565b5b8135611a228482602086016119bb565b91505092915050565b60008060008060808587031215611a4557611a44611777565b5b600085013567ffffffffffffffff811115611a6357611a6261177c565b5b611a6f878288016119fd565b945050602085013567ffffffffffffffff811115611a9057611a8f61177c565b5b611a9c878288016119fd565b9350506040611aad878288016117a2565b9250506060611abe878288016117a2565b91505092959194509250565b600060c0820190508181036000830152611ae48189611712565b90508181036020830152611af88188611712565b9050611b0760408301876117e4565b611b1460608301866117e4565b611b216080830185611825565b611b2e60a08301846117e4565b979650505050505050565b7f4e487b7100000000000000000000000000000000000000000000000000000000600052602260045260246000fd5b60006002820490506001821680611b8057607f821691505b602082108103611b9357611b92611b39565b5b50919050565b7f50726f6a65637420697320636c6f7365642e0000000000000000000000000000600082015250565b6000611bcf6012836116bd565b9150611bda82611b99565b602082019050919050565b60006020820190508181036000830152611bfe81611bc2565b9050919050565b7f4f776e65722063616e27742066756e64207468652070726f6a6563742063726560008201527f61746564206279207468656d73656c7665732e00000000000000000000000000602082015250565b6000611c616033836116bd565b9150611c6c82611c05565b604082019050919050565b60006020820190508181036000830152611c9081611c54565b9050919050565b7f50726f6a6563742043616d706169676e2068617320656e6465642e0000000000600082015250565b6000611ccd601b836116bd565b9150611cd882611c97565b602082019050919050565b60006020820190508181036000830152611cfc81611cc0565b9050919050565b7f4e487b7100000000000000000000000000000000000000000000000000000000600052601160045260246000fd5b6000611d3d82611781565b9150611d4883611781565b9250827fffffffffffffffffffffffffffffffffffffffffffffffffffffffffffffffff03821115611d7d57611d7c611d03565b5b828201905092915050565b7f4f6e6c79204f776e65722063616e20636c6f7365207468652070726f6a65637460008201527f2e00000000000000000000000000000000000000000000000000000000000000602082015250565b6000611de46021836116bd565b9150611def82611d88565b604082019050919050565b60006020820190508181036000830152611e1381611dd7565b9050919050565b7f50726f6a65637420697320696e206f70656e2073746174652e00000000000000600082015250565b6000611e506019836116bd565b9150611e5b82611e1a565b602082019050919050565b60006020820190508181036000830152611e7f81611e43565b9050919050565b6000606082019050611e9b60008301866117e4565b8181036020830152611ead8185611712565b9050611ebc60408301846117e4565b949350505050565b7f50726f6a656374206973207374696c6c206163746976652e0000000000000000600082015250565b6000611efa6018836116bd565b9150611f0582611ec4565b602082019050919050565b60006020820190508181036000830152611f2981611eed565b9050919050565b6000611f3b82611781565b91507fffffffffffffffffffffffffffffffffffffffffffffffffffffffffffffffff8203611f6d57611f6c611d03565b5b600182019050919050565b6000819050919050565b6000819050919050565b6000611fa7611fa2611f9d84611f78565b611f82565b611781565b9050919050565b611fb781611f8c565b82525050565b600061010082019050611fd3600083018b6117e4565b8181036020830152611fe5818a611712565b90508181036040830152611ff98189611712565b90506120086060830188611825565b61201560808301876117e4565b61202260a0830186611840565b61202f60c0830185611fae565b61203c60e08301846117e4565b999850505050505050505056fea2646970667358221220060b52aa5642f7c51ee9b4f34d697c4a18ddcc4ef4a7c95db74e44bf0ac5076f64736f6c634300080e0033",
  "immutableReferences": {},
  "source": "// SPDX-License-Identifier: GPL-3.0\npragma solidity ^0.8.1;\n\n/* \nTODO\n    - Create a Project : createProject\n    - Fetch all Projects : projects\n    - Read a Project : getProjectById\n    - Fund an existing Project : fundProject\n    - Close the Project manually by owner or if endDate expires : closeProject\n    - Get total Contract Balance : balanceOfProjects\n    - Dispatch the ethers to project Owner : dispatchFunds\n*/\ncontract Crowdfunding {\n  string public name;\n  uint256 public projectCount = 0;\n  mapping(uint256 => Project) public projects;\n  mapping(uint256 => mapping(address => uint256)) contributors;\n\n  struct Project {\n    uint256 id;\n    string name;\n    string desc;\n    address owner;\n    uint256 endDate;\n    bool exists;\n    uint256 balance;\n    uint256 target;\n  }\n\n  event ProjectCreated(\n    uint256 id,\n    string name,\n    string desc,\n    address owner,\n    uint256 endDate,\n    bool exists,\n    uint256 balance,\n    uint256 target\n  );\n\n  event ProjectFunded(\n    uint256 id,\n    string name,\n    string desc,\n    address owner,\n    uint256 endDate,\n    bool exists,\n    uint256 balance,\n    uint256 target\n  );\n\n  event ProjectEnded(uint256 id, string name, uint256 balance);\n\n  constructor() {\n    name = 'Marketplace for crowd funding';\n  }\n\n  function createProject(\n    string memory _name,\n    string memory _desc,\n    uint256 _endDate,\n    uint256 _target\n  ) public {\n    // Make sure parameters are correct and supplied\n    // Require a valid name\n    require(bytes(_name).length > 0);\n    // Require a valid target\n    require(_target > 0);\n    // Require a valid endDate\n    require(_endDate > 0);\n    //Increment Project Count\n    projectCount++;\n    // Create the project\n    projects[projectCount] = Project(\n      projectCount,\n      _name,\n      _desc,\n      msg.sender,\n      _endDate,\n      true,\n      0,\n      _target\n    );\n    // trigger an event\n    emit ProjectCreated(projectCount, _name, _desc, msg.sender, _endDate, true, 0, _target);\n  }\n\n  function getProjectById(uint256 _id)\n    public\n    view\n    returns (\n      string memory _name,\n      string memory _desc,\n      uint256 _target,\n      uint256 _endDate,\n      address _owner,\n      uint256 _balance\n    )\n  {\n    //TODO Check if project Exists\n    return (\n      projects[_id].name,\n      projects[_id].desc,\n      projects[_id].target,\n      projects[_id].endDate,\n      projects[_id].owner,\n      projects[_id].balance\n    );\n  }\n\n  function fundProject(uint256 _id) public payable {\n    // Fetch the Project\n    Project memory _project = projects[_id];\n    //Fetch the Project Owner\n    address _owner = _project.owner;\n    // Make sure the project has valid ID\n    require(_project.id > 0 && _project.id <= projectCount);\n    // Check if the Project end Date is greater than now\n    require(block.timestamp < _project.endDate, 'Project is closed.');\n    // Check if the owner is trying to fund and reject it\n    require(_owner != msg.sender, \"Owner can't fund the project created by themselves.\");\n    // Make Sure the Project is active\n    require(_project.exists, 'Project Campaign has ended.');\n    //Sent ether must be greater than 0\n    require(msg.value > 0);\n    // Fund it\n    _project.balance += msg.value;\n    // Update the Project\n    projects[_id] = _project;\n    // contributors can again send the money\n    contributors[_id][msg.sender] += msg.value;\n    // Trigger the event\n    emit ProjectFunded(\n      projectCount,\n      _project.name,\n      _project.desc,\n      msg.sender,\n      _project.endDate,\n      true,\n      _project.balance,\n      _project.target\n    );\n  }\n\n  function closeProject(uint256 _id) public {\n    // Fetch the Project\n    Project memory _project = projects[_id];\n    //Fetch the Project Owner\n    address _owner = _project.owner;\n    // Check if the owner is trying to close the project\n    require(_owner == msg.sender, 'Only Owner can close the project.');\n    // Check if the project is open or not\n    require(_project.exists == true, 'Project is in open state.');\n    // Check endDate\n    if (block.timestamp > _project.endDate) {\n      _project.exists = false;\n      this.dispatchFunds(_project.id);\n      projects[_id] = _project;\n      emit ProjectEnded(_project.id, _project.name, _project.balance);\n    }\n    require(block.timestamp <= _project.endDate, 'Project is still active.');\n    // Close the project\n    _project.exists = false;\n    // transfer the fund\n    this.dispatchFunds(_project.id);\n    projects[_id] = _project;\n    // Trigger the Event\n    emit ProjectEnded(_project.id, _project.name, _project.balance);\n  }\n\n  function balanceOfProjects() public view returns (uint256) {\n    return address(this).balance;\n  }\n\n  function dispatchFunds(uint256 _id) public payable {\n    Project memory _project = projects[_id];\n    payable(_project.owner).transfer(_project.balance);\n    projects[_id] = _project;\n  }\n}\n",
  "sourcePath": "/home/binod/projects/blockchain/crowdfunding-app/src/contracts/Crowdfunding.sol",
  "compiler": {
    "name": "solc",
    "version": "0.8.14+commit.80d49f37.Emscripten.clang"
  },
  "schemaVersion": "3.4.4",
  "updatedAt": "2022-05-23T17:30:52.819Z",
  "networkType": "ethereum",
  "devdoc": {
    "kind": "dev",
    "methods": {},
    "version": 1
  },
  "userdoc": {
    "kind": "user",
    "methods": {},
    "version": 1
  }
}