{
  "contractName": "Crowdfund",
  "abi": [
    {
      "inputs": [],
      "stateMutability": "nonpayable",
      "type": "constructor"
    },
    {
      "anonymous": false,
      "inputs": [
        {
          "indexed": false,
          "internalType": "address",
          "name": "projectcreator",
          "type": "address"
        },
        {
          "indexed": false,
          "internalType": "string",
          "name": "title",
          "type": "string"
        },
        {
          "indexed": false,
          "internalType": "string",
          "name": "details",
          "type": "string"
        },
        {
          "indexed": false,
          "internalType": "uint256",
          "name": "goal",
          "type": "uint256"
        },
        {
          "indexed": false,
          "internalType": "uint256",
          "name": "deadline",
          "type": "uint256"
        }
      ],
      "name": "Projectcreated",
      "type": "event"
    },
    {
      "anonymous": false,
      "inputs": [
        {
          "indexed": false,
          "internalType": "address",
          "name": "fundingaddress",
          "type": "address"
        },
        {
          "indexed": false,
          "internalType": "uint256",
          "name": "fundingamount",
          "type": "uint256"
        }
      ],
      "name": "Projectfunded",
      "type": "event"
    },
    {
      "inputs": [
        {
          "internalType": "uint256",
          "name": "",
          "type": "uint256"
        }
      ],
      "name": "projects",
      "outputs": [
        {
          "internalType": "string",
          "name": "title",
          "type": "string"
        },
        {
          "internalType": "string",
          "name": "details",
          "type": "string"
        },
        {
          "internalType": "uint256",
          "name": "id",
          "type": "uint256"
        },
        {
          "internalType": "uint256",
          "name": "goalamount",
          "type": "uint256"
        },
        {
          "internalType": "uint256",
          "name": "fundraised",
          "type": "uint256"
        },
        {
          "internalType": "uint256",
          "name": "duedate",
          "type": "uint256"
        },
        {
          "internalType": "address payable",
          "name": "creator",
          "type": "address"
        },
        {
          "internalType": "enum Crowdfund.states",
          "name": "state",
          "type": "uint8"
        },
        {
          "internalType": "bool",
          "name": "isexist",
          "type": "bool"
        }
      ],
      "stateMutability": "view",
      "type": "function",
      "constant": true
    },
    {
      "inputs": [
        {
          "internalType": "string",
          "name": "_title",
          "type": "string"
        },
        {
          "internalType": "string",
          "name": "_details",
          "type": "string"
        },
        {
          "internalType": "uint256",
          "name": "_goalamount",
          "type": "uint256"
        },
        {
          "internalType": "uint256",
          "name": "_duedate",
          "type": "uint256"
        }
      ],
      "name": "addproject",
      "outputs": [],
      "stateMutability": "nonpayable",
      "type": "function"
    },
    {
      "inputs": [
        {
          "internalType": "uint256",
          "name": "id",
          "type": "uint256"
        }
      ],
      "name": "fundproject",
      "outputs": [],
      "stateMutability": "payable",
      "type": "function",
      "payable": true
    },
    {
      "inputs": [
        {
          "internalType": "uint256",
          "name": "_id",
          "type": "uint256"
        }
      ],
      "name": "getprojectdetails",
      "outputs": [
        {
          "internalType": "string",
          "name": "title",
          "type": "string"
        },
        {
          "internalType": "string",
          "name": "details",
          "type": "string"
        },
        {
          "internalType": "uint256",
          "name": "id",
          "type": "uint256"
        },
        {
          "internalType": "uint256",
          "name": "goalamount",
          "type": "uint256"
        },
        {
          "internalType": "uint256",
          "name": "fundraised",
          "type": "uint256"
        },
        {
          "internalType": "uint256",
          "name": "duedate",
          "type": "uint256"
        },
        {
          "internalType": "address",
          "name": "creator",
          "type": "address"
        },
        {
          "internalType": "enum Crowdfund.states",
          "name": "state",
          "type": "uint8"
        },
        {
          "internalType": "bool",
          "name": "isexist",
          "type": "bool"
        }
      ],
      "stateMutability": "view",
      "type": "function",
      "constant": true
    },
    {
      "inputs": [
        {
          "internalType": "uint256",
          "name": "_id",
          "type": "uint256"
        }
      ],
      "name": "checkprojecttime",
      "outputs": [],
      "stateMutability": "nonpayable",
      "type": "function"
    },
    {
      "inputs": [],
      "name": "getprojectlist",
      "outputs": [
        {
          "internalType": "uint256",
          "name": "",
          "type": "uint256"
        }
      ],
      "stateMutability": "view",
      "type": "function",
      "constant": true
    },
    {
      "inputs": [],
      "name": "balancecheck",
      "outputs": [
        {
          "internalType": "uint256",
          "name": "",
          "type": "uint256"
        }
      ],
      "stateMutability": "view",
      "type": "function",
      "constant": true
    },
    {
      "inputs": [
        {
          "internalType": "address",
          "name": "addr",
          "type": "address"
        }
      ],
      "name": "checkbalance",
      "outputs": [
        {
          "internalType": "uint256",
          "name": "",
          "type": "uint256"
        }
      ],
      "stateMutability": "view",
      "type": "function",
      "constant": true
    }
  ],
  "bytecode": "0x608060405234801561001057600080fd5b506000600181905550611776806100286000396000f3fe60806040526004361061007b5760003560e01c8063d2828fdf1161004e578063d2828fdf1461015e578063de22e6ac1461017a578063e2f49406146101a3578063e83029bb146101ce5761007b565b8063107046bd146100805780634e00a362146100c5578063549121781461010a5780636032e86614610133575b600080fd5b34801561008c57600080fd5b506100a760048036038101906100a29190610e88565b61020b565b6040516100bc99989796959493929190611095565b60405180910390f35b3480156100d157600080fd5b506100ec60048036038101906100e79190610e88565b6103a3565b60405161010199989796959493929190611130565b60405180910390f35b34801561011657600080fd5b50610131600480360381019061012c9190610e88565b610625565b005b34801561013f57600080fd5b506101486106f1565b604051610155919061128b565b60405180910390f35b61017860048036038101906101739190610e88565b6106f9565b005b34801561018657600080fd5b506101a1600480360381019061019c9190610de9565b61091a565b005b3480156101af57600080fd5b506101b8610bc0565b6040516101c5919061128b565b60405180910390f35b3480156101da57600080fd5b506101f560048036038101906101f09190610dbc565b610bca565b604051610202919061128b565b60405180910390f35b600060205280600052604060002060009150905080600001805461022e9061142f565b80601f016020809104026020016040519081016040528092919081815260200182805461025a9061142f565b80156102a75780601f1061027c576101008083540402835291602001916102a7565b820191906000526020600020905b81548152906001019060200180831161028a57829003601f168201915b5050505050908060010180546102bc9061142f565b80601f01602080910402602001604051908101604052809291908181526020018280546102e89061142f565b80156103355780601f1061030a57610100808354040283529160200191610335565b820191906000526020600020905b81548152906001019060200180831161031857829003601f168201915b5050505050908060020154908060030154908060040154908060050154908060060160009054906101000a900473ffffffffffffffffffffffffffffffffffffffff16908060060160149054906101000a900460ff16908060060160159054906101000a900460ff16905089565b60608060008060008060008060006001548a11156103f6576040517f08c379a00000000000000000000000000000000000000000000000000000000081526004016103ed9061122b565b60405180910390fd5b6000808b815260200190815260200160002060000180546104169061142f565b80601f01602080910402602001604051908101604052809291908181526020018280546104429061142f565b801561048f5780601f106104645761010080835404028352916020019161048f565b820191906000526020600020905b81548152906001019060200180831161047257829003601f168201915b505050505098506000808b815260200190815260200160002060010180546104b69061142f565b80601f01602080910402602001604051908101604052809291908181526020018280546104e29061142f565b801561052f5780601f106105045761010080835404028352916020019161052f565b820191906000526020600020905b81548152906001019060200180831161051257829003601f168201915b505050505097506000808b81526020019081526020016000206002015496506000808b81526020019081526020016000206003015495506000808b81526020019081526020016000206004015494506000808b81526020019081526020016000206005015493506000808b815260200190815260200160002060060160009054906101000a900473ffffffffffffffffffffffffffffffffffffffff1692506000808b815260200190815260200160002060060160149054906101000a900460ff1691506000808b815260200190815260200160002060060160159054906101000a900460ff1690509193959799909294969850565b60008082815260200190815260200160002060050154421015806106735750600080828152602001908152602001600020600301546000808381526020019081526020016000206004015410155b156106ee57600260008083815260200190815260200160002060060160146101000a81548160ff021916908360028111156106b1576106b061150a565b5b0217905550600080600083815260200190815260200160002060060160156101000a81548160ff0219169083151502179055506106ed81610beb565b5b50565b600047905090565b60015481111561073e576040517f08c379a00000000000000000000000000000000000000000000000000000000081526004016107359061122b565b60405180910390fd5b6002808111156107515761075061150a565b5b60008083815260200190815260200160002060060160149054906101000a900460ff1660028111156107865761078561150a565b5b14156107c7576040517f08c379a00000000000000000000000000000000000000000000000000000000081526004016107be9061120b565b60405180910390fd5b60008082815260200190815260200160002060060160009054906101000a900473ffffffffffffffffffffffffffffffffffffffff1673ffffffffffffffffffffffffffffffffffffffff163373ffffffffffffffffffffffffffffffffffffffff16141561086b576040517f08c379a0000000000000000000000000000000000000000000000000000000008152600401610862906111cb565b60405180910390fd5b3460008083815260200190815260200160002060040160008282546108909190611318565b92505081905550600160008083815260200190815260200160002060060160146101000a81548160ff021916908360028111156108d0576108cf61150a565b5b02179055506108de81610625565b7ff8dd5a84bfbd29f11a3d507e252ff24b7ddf57fa901537b60430d0da4a1f6098333460405161090f92919061106c565b60405180910390a150565b600084511161095e576040517f08c379a00000000000000000000000000000000000000000000000000000000081526004016109559061126b565b60405180910390fd5b600082116109a1576040517f08c379a00000000000000000000000000000000000000000000000000000000081526004016109989061124b565b60405180910390fd5b4281116109e3576040517f08c379a00000000000000000000000000000000000000000000000000000000081526004016109da906111eb565b60405180910390fd5b600160008154809291906109f690611492565b91905055506040518061012001604052808581526020018481526020016001548152602001838152602001600081526020018281526020013373ffffffffffffffffffffffffffffffffffffffff16815260200160006002811115610a5e57610a5d61150a565b5b81526020016001151581525060008060015481526020019081526020016000206000820151816000019080519060200190610a9a929190610c7f565b506020820151816001019080519060200190610ab7929190610c7f565b5060408201518160020155606082015181600301556080820151816004015560a0820151816005015560c08201518160060160006101000a81548173ffffffffffffffffffffffffffffffffffffffff021916908373ffffffffffffffffffffffffffffffffffffffff16021790555060e08201518160060160146101000a81548160ff02191690836002811115610b5257610b5161150a565b5b02179055506101008201518160060160156101000a81548160ff0219169083151502179055509050507fd6aa8d54feb702724cfb031a41e609ea7c3029d721ce5ae0a58368b9a8da4abd3385858585604051610bb295949392919061100b565b60405180910390a150505050565b6000600154905090565b60008173ffffffffffffffffffffffffffffffffffffffff16319050919050565b60008082815260200190815260200160002060060160009054906101000a900473ffffffffffffffffffffffffffffffffffffffff1673ffffffffffffffffffffffffffffffffffffffff166108fc600080848152602001908152602001600020600401549081150290604051600060405180830381858888f19350505050158015610c7b573d6000803e3d6000fd5b5050565b828054610c8b9061142f565b90600052602060002090601f016020900481019282610cad5760008555610cf4565b82601f10610cc657805160ff1916838001178555610cf4565b82800160010185558215610cf4579182015b82811115610cf3578251825591602001919060010190610cd8565b5b509050610d019190610d05565b5090565b5b80821115610d1e576000816000905550600101610d06565b5090565b6000610d35610d30846112cb565b6112a6565b905082815260208101848484011115610d5157610d5061159c565b5b610d5c8482856113ed565b509392505050565b600081359050610d7381611712565b92915050565b600082601f830112610d8e57610d8d611597565b5b8135610d9e848260208601610d22565b91505092915050565b600081359050610db681611729565b92915050565b600060208284031215610dd257610dd16115a6565b5b6000610de084828501610d64565b91505092915050565b60008060008060808587031215610e0357610e026115a6565b5b600085013567ffffffffffffffff811115610e2157610e206115a1565b5b610e2d87828801610d79565b945050602085013567ffffffffffffffff811115610e4e57610e4d6115a1565b5b610e5a87828801610d79565b9350506040610e6b87828801610da7565b9250506060610e7c87828801610da7565b91505092959194509250565b600060208284031215610e9e57610e9d6115a6565b5b6000610eac84828501610da7565b91505092915050565b610ebe81611380565b82525050565b610ecd8161136e565b82525050565b610edc81611392565b82525050565b610eeb816113db565b82525050565b6000610efc826112fc565b610f068185611307565b9350610f168185602086016113fc565b610f1f816115ab565b840191505092915050565b6000610f37602783611307565b9150610f42826115bc565b604082019050919050565b6000610f5a601083611307565b9150610f658261160b565b602082019050919050565b6000610f7d602183611307565b9150610f8882611634565b604082019050919050565b6000610fa0600a83611307565b9150610fab82611683565b602082019050919050565b6000610fc3600d83611307565b9150610fce826116ac565b602082019050919050565b6000610fe6600c83611307565b9150610ff1826116d5565b602082019050919050565b611005816113d1565b82525050565b600060a0820190506110206000830188610ec4565b81810360208301526110328187610ef1565b905081810360408301526110468186610ef1565b90506110556060830185610ffc565b6110626080830184610ffc565b9695505050505050565b60006040820190506110816000830185610ec4565b61108e6020830184610ffc565b9392505050565b60006101208201905081810360008301526110b0818c610ef1565b905081810360208301526110c4818b610ef1565b90506110d3604083018a610ffc565b6110e06060830189610ffc565b6110ed6080830188610ffc565b6110fa60a0830187610ffc565b61110760c0830186610eb5565b61111460e0830185610ee2565b611122610100830184610ed3565b9a9950505050505050505050565b600061012082019050818103600083015261114b818c610ef1565b9050818103602083015261115f818b610ef1565b905061116e604083018a610ffc565b61117b6060830189610ffc565b6111886080830188610ffc565b61119560a0830187610ffc565b6111a260c0830186610ec4565b6111af60e0830185610ee2565b6111bd610100830184610ed3565b9a9950505050505050505050565b600060208201905081810360008301526111e481610f2a565b9050919050565b6000602082019050818103600083015261120481610f4d565b9050919050565b6000602082019050818103600083015261122481610f70565b9050919050565b6000602082019050818103600083015261124481610f93565b9050919050565b6000602082019050818103600083015261126481610fb6565b9050919050565b6000602082019050818103600083015261128481610fd9565b9050919050565b60006020820190506112a06000830184610ffc565b92915050565b60006112b06112c1565b90506112bc8282611461565b919050565b6000604051905090565b600067ffffffffffffffff8211156112e6576112e5611568565b5b6112ef826115ab565b9050602081019050919050565b600081519050919050565b600082825260208201905092915050565b6000611323826113d1565b915061132e836113d1565b9250827fffffffffffffffffffffffffffffffffffffffffffffffffffffffffffffffff03821115611363576113626114db565b5b828201905092915050565b6000611379826113b1565b9050919050565b600061138b826113b1565b9050919050565b60008115159050919050565b60008190506113ac826116fe565b919050565b600073ffffffffffffffffffffffffffffffffffffffff82169050919050565b6000819050919050565b60006113e68261139e565b9050919050565b82818337600083830152505050565b60005b8381101561141a5780820151818401526020810190506113ff565b83811115611429576000848401525b50505050565b6000600282049050600182168061144757607f821691505b6020821081141561145b5761145a611539565b5b50919050565b61146a826115ab565b810181811067ffffffffffffffff8211171561148957611488611568565b5b80604052505050565b600061149d826113d1565b91507fffffffffffffffffffffffffffffffffffffffffffffffffffffffffffffffff8214156114d0576114cf6114db565b5b600182019050919050565b7f4e487b7100000000000000000000000000000000000000000000000000000000600052601160045260246000fd5b7f4e487b7100000000000000000000000000000000000000000000000000000000600052602160045260246000fd5b7f4e487b7100000000000000000000000000000000000000000000000000000000600052602260045260246000fd5b7f4e487b7100000000000000000000000000000000000000000000000000000000600052604160045260246000fd5b600080fd5b600080fd5b600080fd5b600080fd5b6000601f19601f8301169050919050565b7f50726f6a6563742063726561746f722063616e6e6f742066756e64207468652060008201527f70726f6a65637400000000000000000000000000000000000000000000000000602082015250565b7f496e76616c696420647565206461746500000000000000000000000000000000600082015250565b7f46756e64696e672069736e6f7420617661696c61626c65207269676874206e6f60008201527f7700000000000000000000000000000000000000000000000000000000000000602082015250565b7f496e76616c696420696400000000000000000000000000000000000000000000600082015250565b7f496e7661696420616d6f756e7400000000000000000000000000000000000000600082015250565b7f496e76616964205469746c650000000000000000000000000000000000000000600082015250565b6003811061170f5761170e61150a565b5b50565b61171b8161136e565b811461172657600080fd5b50565b611732816113d1565b811461173d57600080fd5b5056fea2646970667358221220dcc6f88ed49b8e48d01b23f78e3eb696af61039d19852cfebbc8d684e5c2dc2a64736f6c63430008060033",
  "immutableReferences": {},
  "source": "// SPDX-License-Identifier: MIT\npragma solidity ^0.8.4;\ncontract Crowdfund{    \n    enum states{\n        start,\n        funding,\n        end\n    }\n    struct project {\n        string title;\n        string details;\n        uint256 id;\n        uint256 goalamount;\n        uint256 fundraised;\n        uint256 duedate;\n        address  payable creator;\n        states state;\n        bool isexist;\n    }\n    \n    mapping(uint => project)  public projects;\n    uint counter;\n    \n    event Projectcreated( address projectcreator ,string title, string details,uint256 goal, uint deadline);\n    event Projectfunded( address fundingaddress, uint256 fundingamount);\n   \n    constructor(){\n        counter = 0; \n    }\n    \n    //add project to blockchain\n    function addproject( string memory _title, string memory _details,  uint256 _goalamount, uint256 _duedate \n    ) public {\n        require(bytes(_title).length>0,\"Invaid Title\");\n        require(_goalamount>0,\"Invaid amount\");\n        require(_duedate>block.timestamp,\"Invalid due date\");\n        counter ++;\n        projects[counter] = project(_title, _details ,counter, _goalamount ,0,_duedate, payable(msg.sender),states.start,true);\n        emit Projectcreated( msg.sender,_title,_details,_goalamount,_duedate);\n        \n    }\n    \n    //fund the project \n    function fundproject(uint256 id ) public payable{\n\n        require(id <= counter,\"Invalid id\");\n        require(projects[id].state != states.end,\"Funding isnot available right now\");\n        require(msg.sender != projects[id].creator,\"Project creator cannot fund the project\");\n        projects[id].fundraised += msg.value;\n        projects[id].state = states.funding;\n        checkprojecttime(id);\n\n        emit Projectfunded( msg.sender,  msg.value);\n    }\n    \n    //get the list of total project present the blockchain \n    function getprojectdetails(uint256 _id) public view returns(string memory title , string memory details, uint256 id, \n    \n        uint256 goalamount,\n        uint256 fundraised,\n        uint256 duedate,\n        address creator, \n        states state,\n        bool isexist\n        ){\n        require(_id <= counter,\"Invalid id\");\n        title = projects[_id].title;\n        details = projects[_id].details;\n        id = projects[_id].id;\n        goalamount = projects[_id].goalamount;\n        fundraised = projects[_id].fundraised;\n        duedate = projects[_id].duedate;\n        creator = projects[_id].creator;\n        state = projects[_id].state;\n        isexist = projects[_id].isexist;\n        return( title, details, id, goalamount,fundraised,duedate,creator,state,isexist);\n    } \n    //decide whether to close funding or not\n    function checkprojecttime(uint _id) public {\n        if(block.timestamp >= projects[_id].duedate || projects[_id].fundraised >= projects[_id].goalamount){\n            projects[_id].state = states.end;\n            projects[_id].isexist = false;\n            transferbalance(_id);\n        }\n    }\n    //get Details of the project \n    function getprojectlist() public view returns(uint){\n        return(counter);\n\n    }\n    function balancecheck() public view returns(uint){\n        return address(this).balance;\n    }\n    function transferbalance(uint _id) internal   {\n        projects[_id].creator.transfer(projects[_id].fundraised);\n        \n    }\n    function checkbalance(address addr) public view returns(uint){\n        return addr.balance;\n    }\n    \n}",
  "sourcePath": "/home/anu/Blockchain/Crowdfunding/contracts/Crowdfund.sol",
  "compiler": {
    "name": "solc",
    "version": "0.8.6+commit.11564f7e.Emscripten.clang"
  },
  "schemaVersion": "3.4.0",
  "updatedAt": "2021-06-25T09:04:31.987Z",
  "networkType": "ethereum",
  "devdoc": {
    "kind": "dev",
    "methods": {},
    "version": 1
  },
  "userdoc": {
    "kind": "user",
    "methods": {},
    "version": 1
  }
}